:100000000C945A000C9477000C9477000C947700B1
:100010000C9477000C9477000C9477000C94770084
:100020000C9477000C9477000C9477000C94770074
:100030000C9477000C9477000C9477000C94770064
:100040000C9479000C9477000C9477000C94770052
:100050000C9477000C9477000C9477000C94770044
:100060000C9477000C9477000C9477000C94770034
:100070000C9477000C9477000C9477000C94770024
:100080000C9477000C9477000C9477000C94770014
:100090000C9477000C9477000C9477000C94770004
:1000A0000C9477000C9477000C9477000C947700F4
:1000B0000C94770011241FBECFEFD8E0DEBFCDBF78
:1000C00011E0A0E0B1E0EEE9F2E002C005900D928F
:1000D000AE30B107D9F721E0AEE0B1E001C01D922A
:1000E000A731B207E1F70E94C3000C944D010C94B4
:1000F00000001F920F920FB60F9211242F933F937F
:100100008F939F93AF93BF938091130190911401AC
:10011000A0911501B09116013091120123E0230F37
:100120002D3758F50196A11DB11D20931201809322
:10013000130190931401A0931501B09316018091BF
:100140000E0190910F01A0911001B0911101019643
:10015000A11DB11D80930E0190930F01A09310017A
:10016000B0931101BF91AF919F918F913F912F91CA
:100170000F900FBE0F901F90189526E8230F029640
:10018000A11DB11DD2CF789484B5826084BD84B5A1
:10019000816084BD85B5826085BD85B5816085BD82
:1001A00080916E00816080936E001092810080913A
:1001B00081008260809381008091810081608093C2
:1001C0008100809180008160809380008091B100E7
:1001D00084608093B1008091B00081608093B00012
:1001E0008091910082608093910080919100816064
:1001F0008093910080919000816080939000809125
:10020000A10082608093A1008091A1008160809311
:10021000A1008091A00081608093A00080917A006D
:10022000846080937A0080917A00826080937A0063
:1002300080917A00816080937A0080917A00806852
:1002400080937A001092C100E0E0F1E080E09FEF3F
:100250008C3091F080838F5F31968D30C9F760913B
:10026000070185E090E00E943F01C0E0D0E02097C8
:10027000F1F30E940000FBCF90930C01ECCF262FEE
:10028000F999FECF1FBA92BD81BD20BD0FB6F8947B
:0E029000FA9AF99A0FBE01960895F894FFCFDE
:0E029E00001015DACCAA899914AEE5DCFF0039
:00000001FF
