:1070000011241FBE8FEF98E09EBF8DBF11E0A0E05E
:10701000B1E0E2E9FDE702C005900D92AA30B107A8
:10702000D9F721E0AAE0B1E001C01D92A13AB20770
:10703000E1F7CDB7DEB72897DEBFCDBF84B714BE6A
:10704000982F9D7009F091D685E0809381001124DE
:1070500085E090E096D6F82E72D442E06DE080E0B4
:1070600071D480E0C0D18F2C912CB12CA12CBA2CE2
:10707000A92C982C882420E03FEF4FEF57E060E0E8
:1070800080E07ED4A501940160E080E0A4D4A50155
:10709000940160E081E09FD420E03FEF4FEF57E0A4
:1070A00060E081E06DD4A501940160E082E093D4BA
:1070B000A501940160E083E08ED4A501940160E015
:1070C00084E089D4A501940160E085E084D476E071
:1070D000E72EFE013396DF018E2D1D928A95E9F78A
:1070E000F982EA828DED8B838E010F5F1F4F28E0BE
:1070F00040E061E070E080E090E020D582E08093A5
:10710000C00088E18093C100E092C20088E08093D3
:10711000C4008EE018D6259A86E028E13EEF91E083
:10712000309385002093840096BBB09BFECF1D9AC0
:10713000A8958150A9F7D12CC12C97E0B92E2DED3F
:10714000A22E33E0932E8824839445E0E42E51E16F
:10715000752EC5D5813489F4C2D5182F8F2DF9D558
:107160006F2D82E0123821F086E0113809F083E0BB
:1071700085D56F2D80E182D5ECCF823439F414E1CE
:10718000AED51150E9F78F2DE4D5F3CF853431F426
:10719000A6D5A5D5A4D5A3D5A2D5F5CF853541F4DF
:1071A0009ED5C82ED12C9BD5D82ACC0CDD1CEBCF7C
:1071B000863549F494D593D592D591D58F2DC9D5DF
:1071C0006F2D80E0D5CF843609F03CC088D587D5B7
:1071D000682E85D5482E0AE011E0562C80D5D801BE
:1071E0008D938D015A945110F9CF8F2DB2D5B5E4FE
:1071F0004B1201C0FFCFF60197BEE89507B600FC21
:10720000FDCF80910A01AAE0B1E096012A503140F9
:10721000F901EA0FFB1F11969C9111970C0187BE93
:10722000E89511246A946A941296662011F08C9164
:10723000EFCFF601E7BEE89507B600FCFDCF77BEBD
:10724000E89597CF843781F44AD549D5682E47D53C
:107250008F2D7FD58601F80185918F016F2D0ED579
:107260006A946110F8CF85CF853759F48F2D71D589
:107270006F2D8EE103D56F2D85E900D56F2D8FE041
:1072800077CF813509F07FCF1982BA82AB828E0128
:107290000F5F1F4F28E040E061E070E080E090E089
:1072A0004DD488E050D56FCF8EBD00000DB407FEE1
:1072B000FDCF8EB5089580E580939E0191E0909377
:1072C0008D018CBD80918D018DBD0895F4DF2A98CC
:1072D00080ECEADF2A9A8AE18A95F1F700C00895E6
:1072E000CF93C82FE8DF2A9883E0DEDF8C2FDCDF26
:1072F00080E0DADF2A9ACF9108950F931F93CF93FE
:10730000DF93182FEB01042FD6DF2A9883E0CCDF20
:10731000812FCADF0C0F1D2F111DC017D10731F4AB
:107320002A9ADF91CF911F910F91089580E0BCDFE1
:107330008993F3CFCF93DF93D82FC62FBCDF2A9842
:1073400082E0B2DF8D2FB0DF8C2FAEDF2A9ADF9183
:10735000CF9108950F931F93CF93DF93182FEB01D5
:10736000042FA9DF2A9882E09FDF812F9DDF0C0F79
:107370001D2F111DC017D10731F42A9ADF91CF912B
:107380001F910F91089589918FDFF4CF1F93CF93B1
:10739000DF93182FD62FC42F8EDF2A9885E084DF45
:1073A000812F82DF8D2F80DF8C2F7EDF2A9ADF9165
:1073B000CF911F9108957FDF2A9880EA75DF80E0E2
:1073C00073DF2A9A0895CF93C82F482F60EE8FE07D
:1073D000DDDF8FE085DF982F907E81E09C1301C078
:1073E00080E0CF91089580939C01EDCFCF93DF9300
:1073F000E82F862F613009F456C008F48BC0623044
:1074000009F0BBC0E150EE3008F0B7C0F0E0E65F35
:10741000F54CB1C4B23A183A283A2C3A303A343AD8
:10742000383A3B3A3E3A423A453A493A4C3A503A6F
:10743000C4E8D6EF93E9692F8AE27CDF6D2F89E2F9
:1074400079DF6C2F88E276DF80E0DF91CF910895BD
:10745000C4E8D6EF99E8EFCFC3E8D5EE97E8EBCFD5
:10746000C4E8D6EF95E8E7CFC4E8D6EF94E8E3CFD9
:10747000C3E8D5EEFBCFC1E8D3EDF8CFC4E8D6EF33
:1074800091E8D9CFC3E8D5EEFBCFC4E8D6EF90E8BA
:10749000D2CFC3E8D5EEFBCFC1E8D1ED90E0CBCFA2
:1074A000C0E8D0ECFBCFE150EE3078F6F0E0E65AE1
:1074B000F54C61C4B63A683A6C3A253A703AA13A4A
:1074C000743A9E3A773A7B3ABA3A7F3A833A873AA5
:1074D000C4E8D6EF97E6AFCFC4E8D6EF93E5ABCFDD
:1074E000C3E8D5EE9EE4A7CFC4E8D6EFA4CFC3E8A7
:1074F000D5EE94E4A0CFC3E8D5EE93E49CCFC3E8E7
:10750000D5EE91E498CFC3E8D5EE90E494CFC1E8EE
:10751000DAECC4CFE650E93080F5F0E0E159F54C03
:107520002AC4A53AA13A9A3A9E3A773AA93ABA3A7F
:10753000AC3AAF3AC7E8DFEF94EC7DCFC4E8D6EFC2
:10754000D8CFC4E8D6EF99E476CFC1E8D3ED98E17F
:1075500072CFC1E8D3EDCDCFC4E8D6EFD6CFC2E825
:10756000D9ED9CCFC4E8D6EF97EA65CFC7E8DFEF47
:107570009FE361CFC4E8D6EFC4CF81E066CFCF935D
:10758000DF9300D000D0CDB7DEB7613009F52C8392
:107590003B839A0144275527922F990F990F990FF2
:1075A000907E622F63706860962B9A8375E03695A3
:1075B00027957A95E1F7298344E0BE016F5F7F4FFD
:1075C000C9DE0F900F900F900F90DF91CF9108952B
:1075D000B90193E0769567959A95E1F769832295CD
:1075E000220F207E2A831C821B82E6CFCF92DF925D
:1075F000EF92FF92CF93DF9300D000D0CDB7DEB7EC
:10760000E32FFF276A01EE24FF242C83EB839C2DBC
:10761000613001F5990F990F990F907E2C2D2370F1
:107620002860922B9A83A60125E0569547952A95C6
:10763000E1F7498344E0BE016F5F7F4F8BDE0F901F
:107640000F900F900F90DF91CF91FF90EF90DF9010
:10765000CF9008959295990F907E9A83A60193E01A
:10766000569547959A95E1F7E4CFCF9320E030E027
:10767000A90161E080E2BADF20E030E0A90161E029
:1076800084E2B4DF20E030E0A90161E080E0AEDF19
:1076900020E030E0A90160E084E0A8DF20E030E0F5
:1076A000A90161E088E0A2DF20E030E0A90160E00C
:1076B00080E19CDF20E030E0A90161E084E196DF19
:1076C00020E030E0A90160E088E190DFC0E360E005
:1076D0008C2F30DE60E080E18C0F2CDE60E080E2F9
:1076E0008C0F28DECF5FCE3391F760E080E622DE9C
:1076F00060E080E7CF911ECE0F931F93CF93DF936F
:10770000D82F162F042FE2DD80E480939C0180E8BF
:107710005ADEC82FD0DDC11129C0602F812F66DE4F
:10772000811124C0A2DF63E08BE204DE6CE38CE015
:1077300001DE60E08DE0FEDDDD2389F0D330A9F4C9
:1077400044E664E680E622DE40E660E680E71EDE90
:1077500080919C01DF91CF911F910F9134CE44E035
:1077600064E680E613DE40E0F0CFC1E08C2FDF91CD
:10777000CF911F910F910895EF92FF920F931F9356
:10778000CF93DF9300D000D0CDB7DEB77B018A0165
:10779000FB011082FA01108211821282138244E0EE
:1077A000BE016F5F7F4FA9DD2A818981F8E08F9F3D
:1077B000A0011124822F829586958770840F952FC2
:1077C000911D092E000CAA0BBB0BF801808391833D
:1077D000A283B38323FF25C032E0880F991FAA1F1D
:1077E000BB1F3A95D1F72370820F911DA11DB11DCA
:1077F000BA2FA92F982F88272B81820F911DA11DA9
:10780000B11DBA2FA92F982F88272C81820F911D87
:10781000A11DB11D80839183A283B38381E0F70111
:1078200080830F900F900F900F90DF91CF911F9159
:107830000F91FF90EF900895CF93C82F4091A00132
:1078400064E971E085E08C0F85DD80918E018130E7
:1078500029F48091A00180648093A0016091A0012F
:1078600084E08C0F67DD20918F0130919001409171
:1078700091015091920160919D018C2FCF917FCE0B
:10788000CF93DF93C82F4FE851E06DE971E074DFCB
:107890008FEF8C0F25DDD82F84E08C0F21DDD3FFF7
:1078A0000EC091E090938E01482F4F704093A0013D
:1078B00064E971E085E08C0FDF91CF911ECD1092CD
:1078C0008E01F2CFAF92BF92CF92DF92EF92FF92F2
:1078D0001F93CF93DF9300D01F92CDB7DEB76C011B
:1078E0008091000190910101A091020189839A8306
:1078F000AB83F6011082CE0101967C015E0194E01B
:10790000A90EB11CF70111917F01812FE9DC83FDE4
:1079100011C01F5FF601108380E00F900F900F9051
:10792000DF91CF911F91FF90EF90DF90CF90BF90AC
:10793000AF900895EA14FB0429F782E0EECF2A9A6B
:10794000229A08952FB7F8949091930191110BC04A
:10795000229B2A9A229A9CB590619CBD9CB590640A
:107960009CBD259A239A909193019F5F90939301D8
:107970002FBFC2DE91E0811101C090E0892F0895F0
:10798000CF92DF92EF92FF92CF93DF93D82FC62F43
:1079900069017A0180E817DD811116C0D1110DC08F
:1079A000A70196016C2F80E221DE80E0DF91CF916C
:1079B000FF90EF90DF90CF9006CDD130B1F7A701C7
:1079C00096016C2F84E2F0CFDF91CF91FF90EF9082
:1079D000DF90CF900895CF92DF92EF92FF92CF93F6
:1079E000DF93C82FD62F69017A0180E8ECDC811182
:1079F00033C0C23011F160F4CC23A1F0C130C1F02A
:107A000080E0DF91CF91FF90EF90DF90CF90DBCCC3
:107A1000C430E9F0B8F0C53099F7A70196016D2F91
:107A200088E104C0A70196016D2F80E0DFDDE8CF7B
:107A3000A70196016D2F84E0F9CFA70196016D2F64
:107A400088E0F4CFA70196016D2F80E1EFCFA70169
:107A500096016D2F84E1EACFDF91CF91FF90EF90F7
:107A6000DF90CF900895EF92FF920F9360938F0174
:107A700070939001809391019093920140938E01B5
:107A800020939D010093A001F701A4E9B1E0C70193
:107A9000089621912D93E817F907D9F780E00F9107
:107AA000FF90EF90089510928F0110929001109224
:107AB0009101109292011092A00110929D011092DA
:107AC0008E0110929F0180E008950F931F93CF9332
:107AD000DF931F92CDB7DEB710E000E0CE01019634
:107AE000F1DE0F5F1F4F823029F404361105B1F724
:107AF00096E01DC004361105D9F389819DDE898188
:107B000048E068E0815042DC10E000E00F5F1F4F6A
:107B100089818150E5DB982F987083FF05C004367A
:107B20001105A1F797E003C004361105D9F3892F99
:107B30000F90DF91CF911F910F910895EF92FF92D7
:107B40000F931F937801022F242F40E08CDF1F91A9
:107B50000F91FF90EF90B9CF2EDC80FF08C081E637
:107B60008FDE40E061E08CE211DC80E0089581FF6F
:107B700005C081E785DE40E062E0F5CF84E008954E
:107B8000CF92DF92EF92FF920F931F93CF93DF93E9
:107B90006C018B017A01E901DFDF843009F180910A
:107BA0008F0190919001A0919101B0919201F60105
:107BB00080839183A283B3838091A001F7018083A6
:107BC00080919D01F8018083A4E9B1E02091A0019A
:107BD000CD01845991402817190609F054F480E02A
:107BE000DF91CF911F910F91FF90EF90DF90CF9099
:107BF00008958D918993EACFDEDB837011F484E0E0
:107C0000089583E008958DE26BDB887F09F085E0BD
:107C100008958DE265CB8DE163CB8CE161CB48E0CB
:107C200068E08FE0B3DB8FE05BDB83FB882780F9C4
:107C30008150089540E068E08FE0A8DB8FE050DBE2
:107C400083FB882780F98195089540E160E18FE00A
:107C50009DDB8FE045DB8295817081500895482F30
:107C60004295407F60E38CE091DB80E008958DE0F9
:107C700037DB869586958695877008950F931F93B9
:107C8000CF93DF93CDB7DEB728970FB6F894DEBF5A
:107C90000FBECDBFFE01339696E0DF011D929A958F
:107CA000E9F769838A838E010F5F1F4F22E040E06E
:107CB00061E070E080E090E041DF28960FB6F89434
:107CC000DEBF0FBECDBFDF91CF911F910F91089501
:107CD0009091C00095FFFCCF8093C60008950F934C
:107CE0001F93CF93DF93CDB7DEB72E970FB6F894DF
:107CF000DEBF0FBECDBF19861A861B861C861E8668
:107D00001D868E010F5F1F4F88E0F80111928A9542
:107D1000E9F772DF8330E9F7A8959801AE01425F79
:107D20005F4FBE01635F7F4FCE01099629DF8A81D5
:107D30002E960FB6F894DEBF0FBECDBFDF91CF9168
:107D40001F910F910895E0E6F0E098E19083808321
:107D50000895CF93C82FC3DF803219F088E0F3DF96
:107D6000FFCF6C2F84E1CF9189CF282E80E0EBDF0D
:107D7000E0E0FF270994EE0FFF1F0590F491E02D3E
:107D80000994F999FECF92BD81BDF89A992780B5E3
:027D9000089554
:0A7D92003040500100000001000025
:027FFE00020679
:040000030000700089
:00000001FF
